:100000000C9434000C9451000C9451000C94510049
:100010000C9451000C9451000C9451000C9451001C
:100020000C9451000C9451000C9451000C9451000C
:100030000C9451000C9451000C9451000C945100FC
:100040000C9451000C9451000C9403010C94510039
:100050000C94F7000C9451000C9451000C94510036
:100060000C9451000C94510011241FBECFEFD8E026
:10007000DEBFCDBF11E0A0E0B1E0EEE6F9E002C0E6
:1000800005900D92A438B107D9F721E0A4E8B1E0BA
:1000900001C01D92AF38B207E1F70E9482000C94B4
:1000A000B5040C9400001092B90088E48093B80065
:1000B000089594EA9093BC00EFE3FCE93197F1F7DF
:1000C00000C000009091B900987F983011F09031F5
:1000D000A9F48093BB0084E88093BC008FE39CE983
:1000E0000197F1F700C000009091B900987F983116
:1000F00039F081E0903429F480E0089581E008959A
:1001000080E00895CF93DF93CDB7DEB7C456D10911
:100110000FB6F894DEBF0FBECDBF60E875E280E099
:1001200090E00E942E010E94530078940F2EFEE072
:10013000CF2EF1E0DF2EF02DCE0101965C01682E6E
:100140007B2C0F2EF7E48F2EF1E09F2EF02D80E018
:1001500091E00E94B801E12CF12C01E010E0802F29
:10016000880F0E945900811115C09FEFE91AF90A02
:100170001F930F93DF92CF92BF92AF920E94CB0159
:10018000862D972D0E94B8010F900F900F900F9021
:100190000F900F900F5F1F4F0F37110501F7E114FC
:1001A000F10429F482E391E00E94B80112C0FF92A9
:1001B000EF929F928F92BF92AF920E94CB01862DB9
:1001C000972D0E94B8010F900F900F900F900F90F5
:1001D0000F908BE791E00E94B8012FEF83E294EF3C
:1001E000215080409040E1F700C00000B0CF1F9246
:1001F0000F920FB60F921124109286010F900FBE2E
:100200000F901F9018951F920F920FB60F92112406
:100210008F93EF93FF938091C60080938501809127
:100220008401883098F4E0918401F0E080918501A8
:10023000E957FE4F8083809184018F5F8093840112
:10024000E0918401F0E0E957FE4F1082FF91EF91B9
:100250008F910F900FBE0F901F90189522E0209362
:10026000C00028ED2093C10026E02093C200611554
:100270002CE2720721E08207910509F451C0C8F40D
:10028000603428E3720781059105A9F130F46038E4
:1002900075428105910541F164C061152BE4720737
:1002A0008105910579F1611576498105910589F1FD
:1002B00058C0603221EA720727E082079105F1F108
:1002C00030F46039704D8340910589F14AC0603443
:1002D00022E472072FE082079105B9F16038744873
:1002E0008E419105C9F13DC08FEC90E09093C5001F
:1002F0008093C40008958AE890E09093C5008093AD
:10030000C400089587E690E09093C5008093C400F0
:10031000089583E390E09093C5008093C40008950E
:1003200089E190E09093C5008093C400089587E030
:1003300090E09093C5008093C400089583E090E01E
:100340009093C5008093C400089581E090E090935D
:10035000C5008093C40008951092C5001092C40097
:1003600008958FEC90E09093C5008093C4000895A9
:10037000FC019081992371F03196A6ECB0E081E008
:100380009C9380938601909186019111FCCF91916D
:100390009111F6CF0895AEE0B0E0E1EDF1E00C94FC
:1003A0008C040D891E8986E08C831A8309838FEF64
:1003B0009FE79E838D83AE01475E5F4F6F89788D87
:1003C000CE0101960E94ED01EF81F885E00FF11F4B
:1003D00010822E96E4E00C94A804ABE0B0E0E3EFCA
:1003E000F1E00C947E046C017B018A01FC01178210
:1003F0001682838181FFCCC1CE0101963C01F601BA
:100400009381F70193FD859193FF81917F0188236B
:1004100009F4BAC1853239F493FD859193FF819136
:100420007F01853229F4B60190E00E94E403E7CF12
:10043000912C212C312CFFE1F315D8F08B3279F07F
:1004400038F4803279F08332A1F4232D20611DC06D
:100450008D3261F0803369F4232D216016C0832D25
:100460008260382EE32DE4603E2E2AC0F32DF86022
:100470001DC037FC2DC020ED280F2A3040F08E32F1
:10048000B9F436FC81C1232D2064322E19C036FE0A
:1004900006C08AE0989E200D1124922E11C0EAE039
:1004A0002E9E200D1124222EF32DF0623F2E08C027
:1004B0008C3621F4832D8068382E02C0883641F4B2
:1004C000F70193FD859193FF81917F018111B3CF56
:1004D000982F9F7D9554933028F40C5F1F4F9FE316
:1004E00099830DC0833631F0833771F0833509F07D
:1004F00059C021C0F801808189830E5F1F4F882475
:100500008394912C530113C02801F2E04F0E511C2B
:10051000F801A080B18036FE03C0692D70E002C0F2
:100520006FEF7FEFC5010E94D9034C018201F32DCB
:10053000FF773F2E16C0280122E0420E511CF80121
:10054000A080B18036FE03C0692D70E002C06FEF5D
:100550007FEFC5010E94CE034C01F32DF0683F2EC2
:10056000820133FC1BC0822D90E088169906B0F4FE
:10057000B60180E290E00E94E4032A94F4CFF501F2
:1005800037FC859137FE81915F01B60190E00E94B2
:10059000E40321102A9421E0821A91088114910425
:1005A00071F7E8C0843611F0893641F5F80137FE5D
:1005B00007C060817181828193810C5F1F4F08C0E9
:1005C00060817181072E000C880B990B0E5F1F4F05
:1005D000F32DFF763F2E97FF09C09095809570957B
:1005E00061957F4F8F4F9F4FF0683F2E2AE030E09C
:1005F000A3010E942004882E861845C0853731F457
:10060000232D2F7EB22E2AE030E025C0932D997F36
:10061000B92E8F36C1F018F4883579F0B5C080371F
:1006200019F0883721F0B0C0E92FE061BE2EB4FE8A
:100630000DC0FB2DF460BF2E09C034FE0AC0292F67
:100640002660B22E06C028E030E005C020E130E090
:1006500002C020E132E0F801B7FE07C0608171817D
:10066000828193810C5F1F4F06C06081718180E0A1
:1006700090E00E5F1F4FA3010E942004882E861871
:10068000FB2DFF773F2E36FE0DC0232D2E7FA22E91
:10069000891458F434FE0BC032FC09C0832D8E7EC1
:1006A000A82E05C0B82CA32C03C0B82C01C0B92CAF
:1006B000A4FE0FC0FE01E80DF11D8081803321F4FE
:1006C0009A2D997EA92E09C0A2FE06C0B394B394B8
:1006D00004C08A2D867809F0B394A3FC11C0A0FE53
:1006E00006C0B21488F4280C922C9B180EC0B214C9
:1006F00060F4B60180E290E00E94E403B394F7CF87
:10070000B21418F42B1802C0982C212CA4FE10C08F
:10071000B60180E390E00E94E403A2FE17C0A1FCB2
:1007200003C088E790E002C088E590E0B6010CC005
:100730008A2D867859F0A1FE02C08BE201C080E2CA
:10074000A7FC8DE2B60190E00E94E403891438F41E
:10075000B60180E390E00E94E4039A94F7CF8A9474
:10076000F301E80DF11D8081B60190E00E94E403E1
:100770008110F5CF222009F442CEB60180E290E04C
:100780000E94E4032A94F6CFF6018681978102C085
:100790008FEF9FEF2B96E2E10C949A04FC010590F9
:1007A000615070400110D8F7809590958E0F9F1F73
:1007B0000895FC016150704001900110D8F78095B8
:1007C00090958E0F9F1F08950F931F93CF93DF93E4
:1007D000FB01238121FD03C08FEF9FEF2CC022FF7F
:1007E00016C046815781248135814217530744F44E
:1007F000A081B1819D012F5F3F4F318320838C9376
:10080000268137812F5F3F4F3783268314C08B01AA
:10081000EC01FB010084F185E02D0995892BE1F6BF
:10082000D80116968D919C911797019617969C93D7
:100830008E931697CE01DF91CF911F910F9108955E
:10084000FA01AA27283051F1203181F1E8946F9301
:100850006E7F6E5F7F4F8F4F9F4FAF4FB1E03ED0A7
:10086000B4E03CD0670F781F891F9A1FA11D680F45
:10087000791F8A1F911DA11D6A0F711D811D911D78
:10088000A11D20D009F468943F912AE0269F1124ED
:100890003019305D3193DEF6CF010895462F477051
:1008A000405D4193B3E00FD0C9F7F6CF462F4F70AC
:1008B000405D4A3318F0495D31FD4052419302D00A
:1008C000A9F7EACFB4E0A6959795879577956795B0
:1008D000BA95C9F700976105710508959B01AC01B0
:1008E0000A2E06945795479537952795BA95C9F7D7
:1008F000620F731F841F951FA01D08952F923F92B2
:100900004F925F926F927F928F929F92AF92BF921F
:10091000CF92DF92EF92FF920F931F93CF93DF93CB
:10092000CDB7DEB7CA1BDB0B0FB6F894DEBF0FBE28
:10093000CDBF09942A88398848885F846E847D8475
:100940008C849B84AA84B984C884DF80EE80FD8077
:100950000C811B81AA81B981CE0FD11D0FB6F894ED
:0E096000DEBF0FBECDBFED010895F894FFCFAE
:10096E005363616E6E696E672E2E2E200A004465EB
:10097E007669636520666F756E64206174206164AC
:10098E0064726573733A20307825303278202120D6
:10099E000A004E6F206465766963657320666F7515
:1009AE006E642021200A003D3D3D3D3D3D3D3D3DD7
:1009BE00204E756D626572206F6620646576696380
:1009CE00657320666F756E643A2025642021203D84
:1009DE003D3D3D3D3D3D3D3D200A00446F6E652E43
:0409EE00200A0A00D1
:00000001FF
